:100000000C9463000C948B000C948B000C948B006C
:100010000C948B000C948B000C948B000C948B0034
:100020000C948B000C948B000C948B000C948B0024
:100030000C948B000C948B000C948B000C948B0014
:100040000C94DB0D0C948B000C94D80F0C942610A0
:100050000C948B000C948B000C948B000C948B00F4
:100060000C948B000C948B000000000024002700EF
:100070002A0000000000250028002B0000000000DE
:1000800023002600290004040404040404040202DA
:100090000202020203030303030301020408102007
:1000A0004080010204081020010204081020000012
:1000B0000007000201000003040600000000000029
:1000C00000008D00921111241FBECFEFD8E0DEBFDB
:1000D000CDBF12E0A0E0B1E0EAEAFCE202C0059088
:1000E0000D92AA35B107D9F713E0AAE5B2E001C035
:1000F0001D92A53CB107E1F710E0C6ECD0E004C0CA
:100100002297FE010E944F16C23CD107C9F70E94F8
:10011000E8110C9453160C940000CF92EF920F93B9
:100120008AE592E06CE04BE02AE009E058E0E52E39
:1001300037E0C32E0E948F0D8091A9029091AA02F0
:100140009093AC028093AB020F91EF90CF90089503
:100150006F927F928F929F92AF92BF92CF92DF92D7
:10016000EF92FF920F931F930E94230E2091A10202
:100170003091A2024091A3025091A402621B730B22
:10018000840B950B6093A5027093A6028093A7023F
:100190009093A80260907302709074028090750230
:1001A00090907602A0900402B0900502C0900602E2
:1001B000D09007026091020270910302882777FDB8
:1001C0008095982F0E94F1147B018C01C401B3012A
:1001D000A60195010E94ED13A80197010E94A115A7
:1001E0001816E4F480E160E00E94300F2091A5022F
:1001F0003091A6024091A7025091A802809110026E
:1002000090911102A0911202B091130282179307EC
:10021000A407B5070CF03EC08FE026C0C401B301AF
:10022000A60195010E94EE13A80197010E945214A5
:10023000882344F58FE060E00E94300F2091A502F2
:100240003091A6024091A7025091A802809110021D
:1002500090911102A0911202B0911302821793079C
:10026000A407B507BCF480E161E00E94300F0E9452
:10027000230E6093A1027093A2028093A302909335
:10028000A40208C08FE060E00E94300F80E160E0CF
:100290000E94300F1F910F91FF90EF90DF90CF9051
:1002A000BF90AF909F908F907F906F9008952F9206
:1002B0003F924F925F926F927F928F929F92AF92F6
:1002C000BF92CF92DF92EF92FF920F931F93DF9333
:1002D000CF93CDB7DEB76C970FB6F894DEBF0FBEE5
:1002E000CDBF0E94230E609391027093920280937F
:1002F0009302909394020091870210918802000F5C
:10030000111F09581D4FF80160817181882777FD01
:100310008095982F0E94F1149B01AC016091890295
:1003200070918A0280918B0290918C020E94ED1351
:100330006093890270938A0280938B0290938C025F
:100340008EE00E94CF0EF801918380830091870296
:1003500010918802F801EE0FFF1FE958FD4F6081F0
:100360007181882777FD8095982F0E94F114209144
:10037000890230918A0240918B0250918C020E9436
:10038000EE136093890270938A0280938B0290939C
:100390008C020F5F1F4F1093880200938702083072
:1003A000110524F0109288021092870220E030E0BC
:1003B00040E05EE30E94A5151B012C0160938D02B5
:1003C00070938E0280938F0290939002E09073025C
:1003D000F090740200917502109176026091AD0266
:1003E0007091AE02882777FD8095982F0E94F114B6
:1003F000698F7A8F8B8F9C8FC801B701298D3A8DB9
:100400004B8D5C8D0E94A11588230CF43DC060913A
:10041000AF027091B002882777FD8095982F0E94D7
:10042000F1143B014C01C801B701A40193010E94E2
:10043000521488234CF5A090CD02B090CE02C0900B
:10044000CF02D090D002C201B101298D3A8D4B8DDF
:100450005C8D0E94ED137B018C016091D102709143
:10046000D2028091D3029091D402A60195010E94FC
:10047000ED139B01AC01C801B7010E94A5157B01DA
:100480008C01C401B30136C26091AF027091B00219
:10049000882777FD8095982F0E94F1143B014C012D
:1004A000C801B701A40193010E94A11588230CF48F
:1004B00041C06091B1027091B202882777FD8095AA
:1004C000982F0E94F1146D8B7E8B8F8B988FC801B3
:1004D000B7012D893E894F89588D0E945214882377
:1004E0004CF5A090D102B090D202C090D302D0902F
:1004F000D402C201B101A40193010E94ED137B015A
:100500008C016091D5027091D6028091D7029091B2
:10051000D802A60195010E94ED139B01AC01C80110
:10052000B7010E94A5157B018C016D897E898F8999
:10053000988DADC16091B1027091B202882777FDAC
:100540008095982F0E94F1143B014C01C801B7011E
:10055000A40193010E94A11588230CF441C060916D
:10056000B3027091B402882777FD8095982F0E947E
:10057000F114698B7A8B8B8B9C8BC801B70129890D
:100580003A894B895C890E94521488234CF5A090CB
:10059000D502B090D602C090D702D090D802C20146
:1005A000B101A40193010E94ED137B018C016091C4
:1005B000D9027091DA028091DB029091DC02A601EF
:1005C00095010E94ED139B01AC01C801B7010E9487
:1005D000A5157B018C0169897A898B899C8957C112
:1005E0006091B3027091B402882777FD8095982FAF
:1005F0000E94F1143B014C01C801B701A401930111
:100600000E94A11588230CF441C06091B50270913D
:10061000B602882777FD8095982F0E94F1146D8788
:100620007E878F87988BC801B7012D853E854F85C2
:1006300058890E94521488234CF5A090D902B0909A
:10064000DA02C090DB02D090DC02C201B101A40149
:1006500093010E94ED137B018C016091DD0270918A
:10066000DE028091DF029091E002A60195010E94D6
:10067000ED139B01AC01C801B7010E94A5157B01D8
:100680008C016D857E858F85988901C16091B50249
:100690007091B602882777FD8095982F0E94F114FB
:1006A0003B014C01C801B701A40193010E94A115AF
:1006B00088230CF441C06091B7027091B80288277A
:1006C00077FD8095982F0E94F11469877A878B8730
:1006D0009C87C801B70129853A854B855C850E94B6
:1006E000521488234CF5A090DD02B090DE02C09039
:1006F000DF02D090E002C201B101A40193010E9487
:10070000ED137B018C016091E1027091E202809116
:10071000E3029091E402A60195010E94ED139B0172
:10072000AC01C801B7010E94A5157B018C01698548
:100730007A858B859C85ABC06091B7027091B802B9
:10074000882777FD8095982F0E94F1143B014C017A
:10075000C801B701A40193010E94A11588230CF4DC
:1007600041C06091B9027091BA02882777FD8095E7
:10077000982F0E94F1146D837E838F839887C80120
:10078000B7012D813E814F8158850E9452148823E4
:100790004CF5A090E102B090E202C090E302D0904C
:1007A000E402C201B101A40193010E94ED137B0197
:1007B0008C016091E5027091E6028091E7029091D0
:1007C000E802A60195010E94ED139B01AC01C8014E
:1007D000B7010E94A5157B018C016D817E818F81FF
:1007E000988555C06091B9027091BA02882777FD4B
:1007F0008095982F0E94F1143B014C01C801B7016C
:10080000A40193010E94A11588230CF443C06091B8
:10081000BB027091BC02882777FD8095982F0E94BB
:10082000F11469837A838B839C83C801B701298182
:100830003A814B815C810E94521488235CF5A09020
:10084000E502B090E602C090E702D090E802C20153
:10085000B101A40193010E94ED137B018C01609111
:10086000E9027091EA028091EB029091EC02A601FC
:1008700095010E94ED139B01AC01C801B7010E94D4
:10088000A5157B018C0169817A818B819C81A401F2
:10089000930134C0A090CD02B090CE02C090CF02A0
:1008A000D090D002C201B101298D3A8D4B8D5C8D63
:1008B0000E94ED137B018C016091E9027091EA02C4
:1008C0008091EB029091EC02A60195010E94ED133C
:1008D0009B01AC01C801B7010E94A5157B018C01E9
:1008E0006091BB027091BC02882777FD8095982F9C
:1008F0000E94F114298D3A8D4B8D5C8D0E94ED1371
:100900009B01AC01C801B7010E945614A6019501D4
:100910000E94EE13609373027093740280937502C9
:10092000909376026C960FB6F894DEBF0FBECDBFE3
:10093000CF91DF911F910F91FF90EF90DF90CF90BB
:10094000BF90AF909F908F907F906F905F904F90EF
:100950003F902F900895AF92BF92CF92DF92EF9287
:10096000FF920F931F938C016A017B01B1E1AB2EC3
:10097000B3E0BB2EC501B8014C2D0E94CF0D0F5F17
:100980001F4F5527F7FC5A954F2D3E2D2D2DC50194
:10099000B801422F0E94CF0D0F5F1F4F97015527BF
:1009A00037FD5095452FC501B801422F0E94CF0D4C
:1009B0000F5F1F4FCF2CDD24EE24FF24C501B801AB
:1009C0004C2D0E94CF0D1F910F91FF90EF90DF9063
:1009D000CF90BF90AF9008958AE592E060E041E04B
:1009E0000E94A20C80910F03909110038530910515
:1009F00009F40FC186309105ACF48230910509F4F9
:100A000091C08330910534F4009719F1019709F0F2
:100A100011C244C08330910509F4A1C0049709F0C4
:100A200009C2CAC08830910509F47AC1893091059C
:100A300044F48630910509F419C1079709F0FAC109
:100A400042C18930910509F498C10A9709F0F2C1B1
:100A5000C3C140917302509174026091750270910C
:100A600076028AE592E021E030E00E94EA138AE50E
:100A700092E060E071E00E940313609102027091C5
:100A800003028AE592E04AE050E00E94F0128AE513
:100A900092E064E071E00E94031308958AE592E019
:100AA00060E00E94660C4091040250910502609142
:100AB0000602709107028AE592E021E030E00E9490
:100AC000EA138AE592E06AE071E00E940313609104
:100AD0008D0270918E0280918F02909190020E94FF
:100AE000BE149B01AC018AE592E0B9014AE050E0F6
:100AF0000E94F0128AE592E06FE071E00E94031319
:100B000060910402709105028091060290910702A3
:100B10000E94C3149B01AC0181E193E06AE570E09F
:100B2000422F1AC040910C0250910D0260910E02AA
:100B300070910F028AE592E02AE030E00E94B01244
:100B40008AE592E065E171E00E94031381E193E0A0
:100B500060E570E040910C020E94CF0D08958EE098
:100B60000E94CF0EBC019093AE028093AD028AE545
:100B700092E04AE050E00E94F0128AE592E06BE1D8
:100B800071E00E9403134091CD025091CE0260911A
:100B9000CF027091D0028AE592E021E030E00E941D
:100BA000EA134091AD025091AE02662757FD609561
:100BB000762F80E090E00DC18EE00E94CF0EBC0148
:100BC0009093B0028093AF028AE592E04AE050E051
:100BD0000E94F0128AE592E06BE171E00E9403133B
:100BE0004091D1025091D2026091D3027091D4020F
:100BF0008AE592E021E030E00E94EA134091AF02E2
:100C00005091B002662757FD6095762F8AE090E0FC
:100C1000E0C08EE00E94CF0EBC019093B2028093A0
:100C2000B1028AE592E04AE050E00E94F0128AE5C3
:100C300092E06BE171E00E9403134091D502509164
:100C4000D6026091D7027091D8028AE592E021E045
:100C500030E00E94EA134091B1025091B20266273F
:100C600057FD6095762F84E190E0B3C08EE00E943E
:100C7000CF0EBC019093B4028093B3028AE592E058
:100C80004AE050E00E94F0128AE592E06BE171E0E8
:100C90000E9403134091D9025091DA026091DB0265
:100CA0007091DC028AE592E021E030E00E94EA13D4
:100CB0004091B3025091B402662757FD6095762F9C
:100CC0008EE190E086C08EE00E94CF0EBC01909332
:100CD000B6028093B5028AE592E04AE050E00E94B5
:100CE000F0128AE592E06BE171E00E9403134091FB
:100CF000DD025091DE026091DF027091E0028AE530
:100D000092E021E030E00E94EA134091B502509158
:100D1000B602662757FD6095762F88E290E059C0AD
:100D20008EE00E94CF0EBC019093B8028093B70270
:100D30008AE592E04AE050E00E94F0128AE592E0F3
:100D40006BE171E00E9403134091E1025091E202D5
:100D50006091E3027091E4028AE592E021E030E0E4
:100D60000E94EA134091B7025091B802662757FDDE
:100D70006095762F82E390E02CC08EE00E94CF0E2B
:100D8000BC019093BA028093B9028AE592E04AE0EE
:100D900050E00E94F0128AE592E06BE171E00E945F
:100DA00003134091E5025091E6026091E7027091D1
:100DB000E8028AE592E021E030E00E94EA134091E7
:100DC000B9025091BA02662757FD6095762F8CE3E1
:100DD00090E00E94AB0408958EE00E94CF0EBC010B
:100DE0009093BC028093BB028AE592E04AE050E017
:100DF0000E94F0128AE592E06BE171E00E94031319
:100E00004091E9025091EA026091EB027091EC028C
:100E10008AE592E021E030E00E94EA134091BB02B3
:100E20005091BC02662757FD6095762F86E490E0CE
:100E30000E94AB04089580910F03909110030196D6
:100E40009093100380930F0320910D0330910E03B4
:100E50008217930724F01092100310920F038AE573
:100E600092E00E94D10C80910F0390911003853085
:100E7000910509F443C0863091059CF482309105B8
:100E800071F18330910534F40097F9F0019709F07E
:100E900066C020C08330910539F1049709F05FC026
:100EA00028C088309105C9F1893091053CF486301D
:100EB000910549F1079709F052C02AC08930910580
:100EC00089F10A9709F04BC034C08AE592E063E2E9
:100ED00071E02CC08AE592E060E371E027C08AE50A
:100EE00092E06BE371E022C08AE592E06BE471E08E
:100EF0001DC08AE592E06DE571E018C08AE592E0D8
:100F00006FE671E013C08AE592E062E871E00EC01E
:100F10008AE592E065E971E009C08AE592E068EA55
:100F200071E004C08AE592E06BEB71E00E9403136C
:100F300008958AE592E06EEC71E00E94031381E06F
:100F400090E090930E0380930D0381E193E068ECB1
:100F500070E041E00E94CF0D81E080931802089577
:100F6000EF92FF920F931F9382E00E94840F909361
:100F700072028093710283E00E94840F80916F025D
:100F800090917002892B09F038C280917102909182
:100F90007202019709F031C283E00E94840F209110
:100FA0000F0330911003892B09F0ECC02530310577
:100FB00009F48EC026303105C4F42230310509F41D
:100FC00054C02330310544F42115310539F1213065
:100FD000310509F012C22DC02330310509F45AC081
:100FE0002430310509F009C264C02830310509F404
:100FF0009CC0293031054CF42630310509F477C006
:101000002730310509F0F9C181C02930310509F4D3
:101010009BC02A30310509F0F0C1A5C080910202C1
:101020009091030221E0883192070CF0E6C101960D
:10103000EAC0E0900402F0900502009106021091CF
:101040000702C801B70120E030E040EA50E40E9406
:10105000521488230CF0D1C1C801B70120E030E060
:1010600040E05FE30E94EE13EEC080910C0290918D
:101070000D02A0910E02B0910F028C3221E0920776
:1010800020E0A20720E0B2070CF0B7C14996A11DED
:10109000B11DF3C06091CD027091CE028091CF025C
:1010A0009091D0022DEC3CEC4CEC5DE30E94EE13F1
:1010B000FBC06091D1027091D2028091D3029091D5
:1010C000D4022DEC3CEC4CEC5DE30E94EE1303C12A
:1010D0006091D5027091D6028091D7029091D8028A
:1010E0002DEC3CEC4CEC5DE30E94EE130BC16091E7
:1010F000D9027091DA028091DB029091DC022DEC32
:101100003CEC4CEC5DE30E94EE1313C16091DD02F8
:101110007091DE028091DF029091E0022DEC3CECB8
:101120004CEC5DE30E94EE131BC16091E1027091F3
:10113000E2028091E3029091E4022DEC3CEC4CEC55
:101140005DE30E94EE1323C16091E5027091E60217
:101150008091E7029091E8022DEC3CEC4CEC5DE3D1
:101160000E94EE132BC16091E9027091EA02809116
:10117000EB029091EC022DEC3CEC4CEC5DE30E9418
:10118000EE1333C12530310509F4AEC026303105E8
:10119000C4F42230310509F45FC02330310544F432
:1011A0002115310539F12130310509F026C130C052
:1011B0002330310509F46AC02430310509F01DC11E
:1011C0007CC02830310509F4D4C0293031054CF4F5
:1011D0002630310509F49FC02730310509F00DC1D3
:1011E000B1C02930310509F4DBC02A30310509F0DE
:1011F00004C1EDC0809102029091030281359105F6
:101200000CF4FBC001979093030280930202F5C097
:10121000E0900402F090050200910602109107028E
:10122000C801B70120E030E040E05FE30E94A11573
:1012300018160CF0E2C0C801B70120E030E040E031
:101240005FE30E94ED1360930402709305028093A4
:10125000060290930702D1C080910C0290910D027A
:10126000A0910E02B0910F0283339105A105B10543
:101270000CF4C3C04997A109B10980930C02909363
:101280000D02A0930E02B0930F02B7C06091CD0281
:101290007091CE028091CF029091D0022DEC3CEC67
:1012A0004CEC5DE30E94ED136093CD027093CE028F
:1012B0008093CF029093D002A0C06091D102709130
:1012C000D2028091D3029091D4022DEC3CEC4CECF4
:1012D0005DE30E94ED136093D1027093D20280937C
:1012E000D3029093D40289C06091D5027091D60246
:1012F0008091D7029091D8022DEC3CEC4CEC5DE350
:101300000E94ED136093D5027093D6028093D702AA
:101310009093D80272C06091D9027091DA028091E4
:10132000DB029091DC022DEC3CEC4CEC5DE30E9486
:10133000ED136093D9027093DA028093DB029093ED
:10134000DC025BC06091DD027091DE028091DF0201
:101350009091E0022DEC3CEC4CEC5DE30E94ED132F
:101360006093DD027093DE028093DF029093E002CF
:1013700044C06091E1027091E2028091E302909199
:10138000E4022DEC3CEC4CEC5DE30E94ED13609329
:10139000E1027093E2028093E3029093E4022DC095
:1013A0006091E5027091E6028091E7029091E80277
:1013B0002DEC3CEC4CEC5DE30E94ED136093E502F8
:1013C0007093E6028093E7029093E80216C0609162
:1013D000E9027091EA028091EB029091EC022DEC0F
:1013E0003CEC4CEC5DE30E94ED136093E9027093DA
:1013F000EA028093EB029093EC028091710290914B
:1014000072029093700280936F020E94EC048091AC
:1014100014020E94840F9C019093AA028093A90257
:101420008091AB029091AC02892B29F421303105D7
:1014300011F40E941B078091A9029091AA02909337
:10144000AC028093AB0220919502309196024091BC
:101450009702509198028091080290910902A09100
:101460000A02B0910B0282179307A407B50714F480
:101470000E9457010E94230E209191023091920206
:101480004091930250919402621B730B840B950B55
:1014900060939502709396028093970290939802BE
:1014A00020919D0230919E0240919F025091A00296
:1014B00080910C0290910D02A0910E02B0910F024A
:1014C00082179307A407B50784F480911802882334
:1014D00061F00E94A8000E94230E6093990270930D
:1014E0009A0280939B0290939C020E94230E20916B
:1014F000990230919A0240919B0250919C02621B8A
:10150000730B840B950B60939D0270939E028093E6
:101510009F029093A0021F910F91FF90EF9008956A
:101520003F924F925F926F927F928F929F92AF9273
:10153000BF92CF92DF92EF92FF920F931F937B01A6
:101540008C0121E1422E23E0522EC201B7010E94FC
:10155000C80D382E0894E11CF11CC201B7010E948D
:10156000C80DA82E0894E11CF11CC201B7010E940D
:10157000C80D682E0894E11CF11CC201B7010E943D
:10158000C80DBB24CC24DD24DC2CCB2CBA2CAA2403
:10159000772488249924430177246624A60CB71C59
:1015A000C81CD91CA30CB11CC11CD11C90E0A0E02C
:1015B000B0E0B82FAA2799278827A80EB91ECA1EFF
:1015C000DB1EB501C6011F910F91FF90EF90DF90D8
:1015D000CF90BF90AF909F908F907F906F905F90D3
:1015E0004F903F900895EF92FF920F931F93CF93E8
:1015F000DF9383EA93E040E855E260E070E00E9408
:1016000061108AE592E060E142E020E00E94D90C9E
:101610008AE592E061EE71E00E94031368EC70E0ED
:1016200080E090E00E94310E8AE592E060E04AEFAF
:1016300051E00E94700C82E060E00E94F10E83E0B5
:1016400060E00E94F10E8EE060E00E94F10E809159
:10165000140260E00E94F10E8FE061E00E94F10E42
:1016600080E161E00E94F10E3DECE32E32E0F32ECA
:1016700000E010E0C0E0D0E025C0FE01E85EFD4FD4
:1016800060817181882777FD8095982F0E94900A4C
:10169000FE01E555FD4F71836083FE01E85DFD4F5E
:1016A00060817181882777FD8095982F0E94900A2C
:1016B0000E94F114F70161937193819391937F01DB
:1016C0000F5F1F4F22968091160290911702081704
:1016D00019079CF26AE570E080E090E00E94900AB1
:1016E0000E94F11460930402709305028093060235
:1016F0009093070260E570E080E090E00E94900A1D
:1017000060930C0270930D0280930E0290930F026F
:10171000E7E7F2E01192119282E0E738F807D1F79B
:10172000809114020E94840F892B49F481E193E097
:1017300068EC70E04BE00E94CF0D1092180281E13E
:1017400093E068EC70E00E94C80D80930D03109246
:101750000E03DF91CF911F910F91FF90EF900895AD
:101760000F931F938C01FC01868160E00E94300F73
:1017700081E090E00E948A0EF801868161E00E947B
:10178000300F81E090E00E948A0EF801868160E0CF
:101790000E94300F84E690E00E948A0E1F910F9104
:1017A0000895CF92DF92EF92FF920F931F93CF9302
:1017B000DF93D82EC92E282F392FC9018C01C0E004
:1017C000D0E0E62EFF24F801878161E00E94F10E4F
:1017D000B7010C2E02C0759567950A94E2F7617007
:1017E000F80187810E94300F21960F5F1F4FC8308C
:1017F000D10549F78D2D9C2D0E94B00BDF91CF9123
:101800001F910F91FF90EF90DF90CF900895CF92AE
:10181000DF92EF92FF920F931F93CF93DF93D82E17
:10182000C92E282F392FC9018C01C0E0D0E0E62E47
:10183000FF24F801878161E00E94F10EB7010C2EB0
:1018400002C0759567950A94E2F76170F801878187
:101850000E94300F21960F5F1F4FC430D10549F70A
:101860008D2D9C2D0E94B00BDF91CF911F910F9178
:10187000FF90EF90DF90CF9008951F93CF93DF9369
:10188000EC01162F8C81642F0E94300F8D818F3FC9
:1018900019F060E00E94300F8F8584FF05C0CE01F3
:1018A000612F0E94D10B0EC0612F70E084E075950E
:1018B00067958A95E1F7CE010E94070CCE01612F52
:1018C0000E94070CDF91CF911F91089541E00E9483
:1018D0003D0C81E090E0089540E00E943D0C0895A9
:1018E000EF92FF920F931F93CF93DF938C017A01B6
:1018F0006770660F660F660F60640E946C0CC0E034
:10190000D0E0D801ED91FC91D701AC0FBD1F019043
:10191000F081E02DC8016C9109952196C830D10560
:1019200081F7DF91CF911F910F91FF90EF90089574
:10193000FC016089862F8460808B6C60CF010E94DF
:101940006C0C0895DF93CF93CDB7DEB728970FB611
:10195000F894DEBF0FBECDBF9C01FE013196A2E41C
:10196000B2E088E00D9001928150E1F7F90183899E
:10197000481710F0482F4150E42FF0E0EE0FFF1F02
:10198000EC0FFD1F8181680F6068C9010E946C0C1B
:1019900028960FB6F894DEBF0FBECDBFCF91DF9172
:1019A000089561E00E946C0C80ED97E00E948A0E21
:1019B0000895CF93DF93EC01423018F08F85886053
:1019C0008F874B8B1C8A222329F0413019F48F8595
:1019D00084608F8780E593EC0E948A0E8C8160E0A2
:1019E0000E94300F8E8160E00E94300F8D818F3F0A
:1019F00019F060E00E94300F6F8564FD1DC0CE01BC
:101A000063E00E94070C84E991E10E948A0ECE01F6
:101A100063E00E94070C84E991E10E948A0ECE01E6
:101A200063E00E94070C86E990E00E948A0ECE01D6
:101A300062E00E94070C16C06062CE010E946C0C2E
:101A400084E991E10E948A0E6F856062CE010E9456
:101A50006C0C86E990E00E948A0E6F856062CE0170
:101A60000E946C0C6F856062CE010E946C0C84E059
:101A7000888BCE010E94980CCE010E94D10C82E08E
:101A8000898BCE0166E00E946C0CDF91CF910895A6
:101A90006F927F928F92AF92CF92EF920F931F939C
:101AA000DF93CF93CDB7DEB73C01162F842FF30120
:101AB000448325830683E782C086A18682869D852E
:101AC00093879E8594879F8595879889968761E0FF
:101AD0000E94F10EF30185818F3F19F061E00E94B1
:101AE000F10EF301868161E00E94F10E112319F0DD
:101AF000F301178603C080E1F3018787C30160E12A
:101B000041E020E00E94D90CCF91DF911F910F910D
:101B1000EF90CF90AF908F907F906F9008958F92BD
:101B2000AF92CF92EF920F931F93CF93DF93DC018D
:101B3000362F542F722F102FAE2C8C2C13961C92F4
:101B40001E9212978EE392E011969C938E9300D092
:101B500000D0EDB7FEB73196CDB7DEB7198211824E
:101B600012821382CD0161E0432F2FEF052FE72E64
:101B7000C12E0E94480D0F900F900F900F90DF9193
:101B8000CF911F910F91EF90CF90AF908F900895CC
:101B9000F999FECF72BD61BDF89A80B50895F999A3
:101BA000FECF1FBA72BD61BD40BD0FB6F894FA9A60
:101BB000F99A0FBE08951F920F920FB60F9211243B
:101BC0002F933F938F939F93AF93BF93809116036F
:101BD00090911703A0911803B091190330911A0343
:101BE0000196A11DB11D232F2D5F2D3720F02D57FC
:101BF0000196A11DB11D20931A03809316039093A3
:101C00001703A0931803B0931903809112039091C6
:101C10001303A0911403B09115030196A11DB11DEA
:101C20008093120390931303A0931403B0931503AE
:101C3000BF91AF919F918F913F912F910F900FBEC8
:101C40000F901F9018958FB7F8942091160330913C
:101C5000170340911803509119038FBFB901CA01AE
:101C600008959B01AC017FB7F89480911203909185
:101C70001303A0911403B091150366B5A89B05C08A
:101C80006F3F19F00196A11DB11D7FBFBA2FA92F7B
:101C9000982F8827860F911DA11DB11D62E0880F26
:101CA000991FAA1FBB1F6A95D1F7BC012DC0FFB7B2
:101CB000F8948091120390911303A0911403B091B2
:101CC0001503E6B5A89B05C0EF3F19F00196A11DCD
:101CD000B11DFFBFBA2FA92F982F88278E0F911DF6
:101CE000A11DB11DE2E0880F991FAA1FBB1FEA9535
:101CF000D1F7861B970B885E9340C8F22150304085
:101D00004040504068517C4F211531054105510537
:101D100071F60895019739F0880F991F880F991F60
:101D200002970197F1F70895789484B5826084BD95
:101D300084B5816084BD85B5826085BD85B58160CF
:101D400085BDEEE6F0E0808181608083E1E8F0E02F
:101D50001082808182608083808181608083E0E85E
:101D6000F0E0808181608083E1EBF0E0808184603D
:101D70008083E0EBF0E0808181608083EAE7F0E03F
:101D800080818460808380818260808380818160A3
:101D900080838081806880831092C1000895982F8D
:101DA0008E3008F09E509770809119028295880FAE
:101DB000880F807C892B80937C0080917A008064DE
:101DC00080937A0080917A0086FDFCCF2091780084
:101DD00040917900942F80E030E0282B392BC90105
:101DE0000895CF93DF93482F50E0CA0186569F4F46
:101DF000FC0134914A575F4FFA018491882369F1BD
:101E000090E0880F991FFC01E859FF4FA591B4910C
:101E1000FC01EE58FF4FC591D491662351F42FB7C2
:101E2000F8948C91932F909589238C9388818923A2
:101E30000BC0623061F42FB7F8948C91932F90957A
:101E400089238C938881832B88832FBF06C09FB7FB
:101E5000F8948C91832B8C939FBFDF91CF91089541
:101E6000482F50E0CA0182559F4FFC012491CA01BE
:101E700086569F4FFC0194914A575F4FFA01349167
:101E8000332309F440C0222351F1233071F0243070
:101E900028F42130A1F0223011F514C02630B1F021
:101EA0002730C1F02430D9F404C0809180008F77AE
:101EB00003C0809180008F7D8093800010C084B526
:101EC0008F7702C084B58F7D84BD09C08091B0003A
:101ED0008F7703C08091B0008F7D8093B000E32F97
:101EE000F0E0EE0FFF1FEE58FF4FA591B4912FB712
:101EF000F894662321F48C919095892302C08C91EB
:101F0000892B8C932FBF0895682F70E0CB018255E9
:101F10009F4FFC012491CB0186569F4FFC014491B9
:101F20006A577F4FFB019491992319F420E030E028
:101F30003CC0222351F1233071F0243028F42130A9
:101F4000A1F0223011F514C02630B1F02730C1F0D5
:101F50002430D9F404C0809180008F7703C0809131
:101F600080008F7D8093800010C084B58F7702C081
:101F700084B58F7D84BD09C08091B0008F7703C088
:101F80008091B0008F7D8093B000892F90E0880F02
:101F9000991F84589F4FFC01A591B4918C9120E02A
:101FA00030E0842311F021E030E0C9010895089564
:101FB0001F920F920FB60F9211242F933F934F93BE
:101FC0008F939F93EF93FF938091C00082FD1DC07C
:101FD0004091C60020915B0330915C032F5F3F4F1F
:101FE0002F73307080915D0390915E03281739073D
:101FF00071F0E0915B03F0915C03E55EFC4F408380
:1020000030935C0320935B0302C08091C600FF9174
:10201000EF919F918F914F913F912F910F900FBE14
:102020000F901F901895E091AF03F091B003E05C22
:10203000FF4F8191919120813181821B930B8F738E
:102040009070892B11F00E94D70F08951F920F9264
:102050000FB60F9211242F933F938F939F93EF937B
:10206000FF9320919F033091A0038091A103909151
:10207000A2032817390731F48091C1008F7D809326
:10208000C10014C0E091A103F091A203E15AFC4FFA
:1020900020818091A1039091A20301968F7390708B
:1020A0009093A2038093A1032093C600FF91EF9128
:1020B0009F918F913F912F910F900FBE0F901F9086
:1020C0001895AF92BF92DF92EF92FF920F931F93FA
:1020D000CF93DF93EC017A018B01DD24403081EE58
:1020E000580780E0680780E0780711F0DD24D3947A
:1020F00091E0A92EB12CEC89FD89DD2069F0C501A4
:1021000008A002C0880F991F0A94E2F7808360E05C
:1021100079E08DE390E005C0108260E874E88EE11C
:1021200090E0A80197010E942B16215030404040BA
:102130005040569547953795279580E120303807D0
:1021400020F0DD2011F0DD24D6CFE889F989308335
:10215000EA89FB89208319A2EE89FF89408121E069
:1021600030E0C9010C8C02C0880F991F0A94E2F775
:10217000482B4083EE89FF894081C9010D8C02C044
:10218000880F991F0A94E2F7482B4083EE89FF8954
:102190004081C9010E8C02C0880F991F0A94E2F792
:1021A000482B4083EE89FF8980810F8C02C0220F6B
:1021B000331F0A94E2F7209528232083DF91CF91E3
:1021C0001F910F91FF90EF90DF90BF90AF90089517
:1021D000DC011C96ED91FC911D97E05CFF4F219175
:1021E000319180819181281B390B2F733070C90187
:1021F0000895DC011C96ED91FC911D97E05CFF4F6A
:1022000020813181E054F040DF01AE5BBF4F8D9102
:102210009C9111972817390719F42FEF3FEF07C04A
:102220008D919C91E80FF91F8081282F30E0C90122
:102230000895DC011C96ED91FC911D97E05CFF4F29
:1022400020813181E054F040DF01AE5BBF4F8D91C2
:102250009C9111972817390719F42FEF3FEF10C001
:102260008D919C911197E80FF91F20818D919C9180
:10227000119701968F73907011969C938E9330E016
:10228000C9010895DC0191968C919197882339F0CA
:102290005496ED91FC915597808186FFF9CF9196E8
:1022A0001C920895CF93DF93EC01EE85FF85E05CEF
:1022B000FF4F20813181E054F0402F5F3F4F2F735B
:1022C0003070DF01AE5BBF4F8D919C911197281745
:1022D0003907D1F3E05CFF4F80819181E054F040F9
:1022E000E80FF91F6083EE85FF85E05CFF4F3183C7
:1022F0002083EE89FF89208181E090E00F8C02C06D
:10230000880F991F0A94E2F7282B208381E089A384
:10231000EC89FD8980818064808381E090E0DF9199
:10232000CF9108951092A6031092A50388EE93E032
:10233000A0E0B0E08093A7039093A803A093A90323
:10234000B093AA038EE492E09093A4038093A30336
:102350008BE193E09093B0038093AF038FE593E01C
:102360009093B2038093B10385EC90E09093B40313
:102370008093B30384EC90E09093B6038093B5030D
:1023800080EC90E09093B8038093B70381EC90E0E9
:102390009093BA038093B90382EC90E09093BC03CE
:1023A0008093BB0386EC90E09093BE038093BD03C3
:1023B00084E08093BF0383E08093C00387E0809331
:1023C000C10385E08093C20381E08093C303089535
:1023D000CF93DF930E94940E0E94F30AC3E1D0E1F1
:1023E0000E94B0072097E1F30E941310F9CFCF921B
:1023F000DF92EF92FF920F931F93CF93DF937C01B5
:102400006B018A01C0E0D0E00FC0D6016D916D0173
:10241000D701ED91FC910190F081E02DC701099564
:10242000C80FD91F015010400115110571F7CE01D9
:10243000DF91CF911F910F91FF90EF90DF90CF90A0
:102440000895CF93DF93EC016115710519F420E035
:1024500030E00FC0DB010D900020E9F71197A61BBB
:10246000B70BE881F9810280F381E02DAD01099578
:102470009C01C901DF91CF9108954F925F927F92A5
:102480008F929F92AF92BF92CF92DF92EF92FF9284
:102490000F931F93DF93CF93CDB7DEB7A1970FB6FE
:1024A000F894DEBF0FBECDBF2C01742ECB012230BD
:1024B00008F42AE019A231E2C32ED12CCC0EDD1E85
:1024C000822E9924AA24BB24672D752FA50194017F
:1024D0000E942B1679018A01C801B701A501940158
:1024E0000E940C16472D461B0894C108D1084A309B
:1024F00014F4405D01C0495CF6014083E114F1042D
:102500000105110521F07E2C5F2DC801DDCFC20130
:10251000B6010E942112A1960FB6F894DEBF0FBE3D
:10252000CDBFCF91DF911F910F91FF90EF90DF9082
:10253000CF90BF90AF909F908F907F905F904F9083
:102540000895DC012115310541F4ED91FC910190D4
:10255000F081E02D642F099508950E943D120895A1
:10256000CF92DF92EF92FF920F931F93CF93DF935F
:10257000EC016A017B012115310541F4E881F98103
:102580000190F081E02D642F09951FC02A3031059C
:10259000D1F477FF17C0E881F9810190F081E02D37
:1025A0006DE209958C0144275527BA014C195D0944
:1025B0006E097F09CE012AE00E943D129801280F82
:1025C000391F04C02AE00E943D129C01C901DF911D
:1025D000CF911F910F91FF90EF90DF90CF900895D2
:1025E000EF92FF920F931F937B019A010027F7FC54
:1025F0000095102FB801A7010E94B0121F910F91F2
:10260000FF90EF9008950E94211208957F928F927B
:102610009F92AF92BF92CF92DF92EF92FF920F9371
:102620001F93CF93DF934C017A018B01722ECB0164
:10263000BA01A80197010E940816882321F0C4015D
:102640006CEE71E021C0C0E0D0E057016801E89471
:10265000D7F8C601B5012FEF3FEF4FE75FE70E94C4
:102660000816882351F4C601B5012FEF3FEF4FE75D
:102670005FE70E945214181614F0C1E0D0E02197D1
:1026800039F0C40160EF71E00E942112EC0193C0A7
:10269000C801B7012FEF3FEF4FE75FE40E94A1159C
:1026A000181654F0C801B7012FEF3FEF4FE75FEC6A
:1026B0000E945214882324F4C40164EF71E0E4CF33
:1026C000C801B70120E030E040E050E00E94521421
:1026D00087FD03C0C0E0D0E00EC0D401ED91FC91B5
:1026E0000190F081E02DC4016DE20995EC0117FB2A
:1026F000109517F9109520E030E040E05FE3DD240D
:102700000BC0CA01B90120E030E040E251E40E9470
:1027100056149B01AC01D394D71498F3C801B701A8
:102720000E94EE135B016C010E94C3147B018C01BB
:10273000C401B801A7012AE030E00E94A112C80F2D
:10274000D91F772039F0C40168EF71E00E9421128F
:10275000C80FD91FC801B7010E94EF149B01AC013B
:10276000C601B5010E94ED1324C020E030E040E234
:1027700051E40E94A5157B018C010E94BE145B01EF
:102780006C01CC24B7FCC094DC2CC401B601A501BB
:102790002AE030E00E94B012C80FD91FC601B5016F
:1027A0000E94F1149B01AC01C801B7010E94ED1316
:1027B0007A947720D1F6CE01DF91CF911F910F91BE
:1027C000FF90EF90DF90CF90BF90AF909F908F9051
:1027D0007F9008950E94061308955058BB27AA279A
:1027E0000ED075C166D130F06BD120F031F49F3F2F
:1027F00011F41EF45BC10EF4E095E7FB51C1E92F23
:1028000077D180F3BA17620773078407950718F02A
:1028100071F49EF58FC10EF4E0950B2EBA2FA02D0A
:102820000B01B90190010C01CA01A0011124FF277D
:10283000591B99F0593F50F4503E68F11A16F04078
:10284000A22F232F342F4427585FF3CF4695379577
:102850002795A795F0405395C9F77EF41F16BA0B3C
:10286000620B730B840BBAF09150A1F0FF0FBB1FEA
:10287000661F771F881FC2F70EC0BA0F621F731F33
:10288000841F48F4879577956795B795F7959E3F90
:1028900008F0B3CF9395880F08F09927EE0F97951E
:1028A00087950895D9D008F481E008950CD00FC120
:1028B00007D140F0FED030F021F45F3F19F0F0C0B6
:1028C000511139C1F3C014D198F39923C9F3552399
:1028D000B1F3951B550BBB27AA2762177307840713
:1028E00038F09F5F5F4F220F331F441FAA1FA9F3C9
:1028F00033D00E2E3AF0E0E830D091505040E695BB
:10290000001CCAF729D0FE2F27D0660F771F881F1B
:10291000BB1F261737074807AB07B0E809F0BB0B0A
:10292000802DBF01FF2793585F4F2AF09E3F51052E
:1029300068F0B6C000C15F3FECF3983EDCF38695CB
:1029400077956795B795F7959F5FC9F7880F911DA4
:102950009695879597F90895E1E0660F771F881F90
:10296000BB1F621773078407BA0720F0621B730B43
:10297000840BBA0BEE1F88F7E095089504D0689495
:10298000B111D9C00895BCD088F09F5790F0B92FED
:102990009927B751A0F0D1F0660F771F881F991FB4
:1029A0001AF0BA95C9F712C0B13081F0C3D0B1E0C6
:1029B0000895C0C0672F782F8827B85F39F0B93FD6
:1029C000CCF3869577956795B395D9F73EF49095B6
:1029D0008095709561957F4F8F4F9F4F0895E89434
:1029E00009C097FB3EF490958095709561957F4F57
:1029F0008F4F9F4F9923A9F0F92F96E9BB27939505
:102A0000F695879577956795B795F111F8CFFAF414
:102A1000BB0F11F460FF1BC06F5F7F4F8F4F9F4F45
:102A200016C0882311F096E911C0772321F09EE8A3
:102A3000872F762F05C0662371F096E8862F70E009
:102A400060E02AF09A95660F771F881FDAF7880FE3
:102A50009695879597F90895990F0008550FAA0B39
:102A6000E0E8FEEF16161706E807F907C0F01216A1
:102A70001306E407F50798F0621B730B840B950BA4
:102A800039F40A2661F0232B242B252B21F40895F9
:102A90000A2609F4A140A6958FEF811D811D089596
:102AA00097F99F6780E870E060E008959FEF80EC01
:102AB000089500240A9416161706180609060895A4
:102AC00000240A9412161306140605060895092E0A
:102AD0000394000C11F4882352F0BB0F40F4BF2B79
:102AE00011F460FF04C06F5F7F4F8F4F9F4F0895B9
:102AF00057FD9058440F551F59F05F3F71F04795AF
:102B0000880F97FB991F61F09F3F79F08795089593
:102B1000121613061406551FF2CF4695F1DF08C0B2
:102B2000161617061806991FF1CF869571056105CF
:102B300008940895E894BB2766277727CB0197F977
:102B400008958ADF08F48FEF08950BD0C0CFB1DF6E
:102B500028F0B6DF18F0952309F0A2CFA7CF1124F3
:102B6000EACFC6DFA0F3959FD1F3950F50E0551F34
:102B7000629FF001729FBB27F00DB11D639FAA27D2
:102B8000F00DB11DAA1F649F6627B00DA11D661F21
:102B9000829F2227B00DA11D621F739FB00DA11D42
:102BA000621F839FA00D611D221F749F3327A00DFC
:102BB000611D231F849F600D211D822F762F6A2F98
:102BC00011249F5750408AF0E1F088234AF0EE0F1D
:102BD000FF1FBB1F661F771F881F91505040A9F72A
:102BE0009E3F510570F05CCFA6CF5F3FECF3983E5F
:102BF000DCF3869577956795B795F795E7959F5F91
:102C0000C1F7FE2B880F911D9695879597F908952A
:102C100023DF880B990B0895629FD001739FF00109
:102C2000829FE00DF11D649FE00DF11D929FF00D5C
:102C3000839FF00D749FF00D659FF00D9927729F93
:102C4000B00DE11DF91F639FB00DE11DF91FBD011E
:102C5000CF0111240895A1E21A2EAA1BBB1BFD016E
:102C60000DC0AA1FBB1FEE1FFF1FA217B307E4076B
:102C7000F50720F0A21BB30BE40BF50B661F771FC3
:102C8000881F991F1A9469F76095709580959095A3
:102C90009B01AC01BD01CF010895EE0FFF1F059010
:0A2CA000F491E02D0994F894FFCFA1
:102CAA005620200020564143200020562020002094
:102CBA004144552000206D532020002041445520D6
:102CCA003D20004C494E453A2020205345543A00B5
:102CDA00546F6C6572616E63653A0052656C617916
:102CEA0020526573706F6E73653A0043616C696256
:102CFA0072617465207E3830564143200043616C0E
:102D0A00696272617465207E3930564143200043FE
:102D1A00616C696272617465207E3130305641435C
:102D2A00200043616C696272617465207E313130C2
:102D3A00564143200043616C696272617465207E6A
:102D4A00313230564143200043616C6962726174CA
:102D5A0065207E313330564143200043616C6962FD
:102D6A0072617465207E31343056414320004361DC
:102D7A006C696272617465207E3135305641432038
:102D8A0000426F6F74696E672E2E2E006E616E00A0
:102D9A00696E66006F7666002E0000040E04000E4F
:102DAA0000007800000000402C0100005E010000D5
:102DBA009600000006000800010100000A00140045
:102DCA001E00280032003C00460064006E007800B5
:102DDA0082008C009600A000AA0000000000660C89
:102DEA00F7110000400014005400000000005211C6
:0A2DFA00F711E8101911F910421149
:00000001FF
